{
  "contractName": "InvoiceStorage",
  "abi": [
    {
      "inputs": [
        {
          "internalType": "address",
          "name": "_adminAddress",
          "type": "address"
        }
      ],
      "payable": false,
      "stateMutability": "nonpayable",
      "type": "constructor"
    },
    {
      "constant": true,
      "inputs": [],
      "name": "adminAddress",
      "outputs": [
        {
          "internalType": "address",
          "name": "",
          "type": "address"
        }
      ],
      "payable": false,
      "stateMutability": "view",
      "type": "function"
    },
    {
      "constant": true,
      "inputs": [
        {
          "internalType": "uint256",
          "name": "",
          "type": "uint256"
        }
      ],
      "name": "invoiceStorage",
      "outputs": [
        {
          "internalType": "uint256",
          "name": "bankNo",
          "type": "uint256"
        },
        {
          "internalType": "address",
          "name": "sender",
          "type": "address"
        },
        {
          "internalType": "uint256",
          "name": "status",
          "type": "uint256"
        }
      ],
      "payable": false,
      "stateMutability": "view",
      "type": "function"
    },
    {
      "constant": true,
      "inputs": [],
      "name": "numOfInvoices",
      "outputs": [
        {
          "internalType": "uint256",
          "name": "",
          "type": "uint256"
        }
      ],
      "payable": false,
      "stateMutability": "view",
      "type": "function"
    },
    {
      "constant": true,
      "inputs": [],
      "name": "owner",
      "outputs": [
        {
          "internalType": "address",
          "name": "",
          "type": "address"
        }
      ],
      "payable": false,
      "stateMutability": "view",
      "type": "function"
    },
    {
      "constant": true,
      "inputs": [],
      "name": "getNumOfInvoices",
      "outputs": [
        {
          "internalType": "uint256",
          "name": "",
          "type": "uint256"
        }
      ],
      "payable": false,
      "stateMutability": "view",
      "type": "function"
    },
    {
      "constant": true,
      "inputs": [
        {
          "internalType": "uint256",
          "name": "_invoiceID",
          "type": "uint256"
        }
      ],
      "name": "getBankNo",
      "outputs": [
        {
          "internalType": "uint256",
          "name": "",
          "type": "uint256"
        }
      ],
      "payable": false,
      "stateMutability": "view",
      "type": "function"
    },
    {
      "constant": true,
      "inputs": [
        {
          "internalType": "uint256",
          "name": "_invoiceID",
          "type": "uint256"
        }
      ],
      "name": "getDataHash",
      "outputs": [
        {
          "internalType": "bytes32[]",
          "name": "",
          "type": "bytes32[]"
        }
      ],
      "payable": false,
      "stateMutability": "view",
      "type": "function"
    },
    {
      "constant": true,
      "inputs": [
        {
          "internalType": "uint256",
          "name": "_invoiceID",
          "type": "uint256"
        }
      ],
      "name": "getStatus",
      "outputs": [
        {
          "internalType": "uint256",
          "name": "",
          "type": "uint256"
        }
      ],
      "payable": false,
      "stateMutability": "view",
      "type": "function"
    },
    {
      "constant": false,
      "inputs": [
        {
          "internalType": "uint256",
          "name": "_invoiceID",
          "type": "uint256"
        },
        {
          "internalType": "uint256",
          "name": "_status",
          "type": "uint256"
        }
      ],
      "name": "setStatus",
      "outputs": [],
      "payable": false,
      "stateMutability": "nonpayable",
      "type": "function"
    },
    {
      "constant": false,
      "inputs": [
        {
          "internalType": "uint256",
          "name": "_bankNo",
          "type": "uint256"
        },
        {
          "internalType": "address",
          "name": "sender",
          "type": "address"
        },
        {
          "internalType": "bytes32[]",
          "name": "_dataHash",
          "type": "bytes32[]"
        },
        {
          "internalType": "uint256",
          "name": "_timestamp",
          "type": "uint256"
        }
      ],
      "name": "addInvoice",
      "outputs": [
        {
          "internalType": "uint256",
          "name": "",
          "type": "uint256"
        }
      ],
      "payable": false,
      "stateMutability": "nonpayable",
      "type": "function"
    },
    {
      "constant": false,
      "inputs": [
        {
          "internalType": "uint256",
          "name": "invoiceIndex",
          "type": "uint256"
        }
      ],
      "name": "removeInvoice",
      "outputs": [],
      "payable": false,
      "stateMutability": "nonpayable",
      "type": "function"
    }
  ],
  "bytecode": "0x608060405234801561001057600080fd5b50604051610c2c380380610c2c833981810160405261003291908101906100d7565b80600260006101000a81548173ffffffffffffffffffffffffffffffffffffffff021916908373ffffffffffffffffffffffffffffffffffffffff16021790555033600360006101000a81548173ffffffffffffffffffffffffffffffffffffffff021916908373ffffffffffffffffffffffffffffffffffffffff160217905550600060018190555050610149565b6000815190506100d181610132565b92915050565b6000602082840312156100e957600080fd5b60006100f7848285016100c2565b91505092915050565b600061010b82610112565b9050919050565b600073ffffffffffffffffffffffffffffffffffffffff82169050919050565b61013b81610100565b811461014657600080fd5b50565b610ad4806101586000396000f3fe608060405234801561001057600080fd5b50600436106100a95760003560e01c8063a595d8fc11610071578063a595d8fc14610166578063c3be6fd614610196578063c4e546cd146101c8578063ebb1a6e9146101e6578063ec60f5e514610202578063fc6f946814610232576100a9565b80631b5f7fc8146100ae5780634c87ded9146100de5780635c622a0e146100fc57806382e408131461012c5780638da5cb5b14610148575b600080fd5b6100c860048036036100c3919081019061078f565b610250565b6040516100d59190610926565b60405180910390f35b6100e6610343565b6040516100f39190610926565b60405180910390f35b61011660048036036101119190810190610766565b610349565b6040516101239190610926565b60405180910390f35b6101466004803603610141919081019061080a565b610368565b005b610150610386565b60405161015d91906108e9565b60405180910390f35b610180600480360361017b9190810190610766565b6103ac565b60405161018d9190610904565b60405180910390f35b6101b060048036036101ab9190810190610766565b610419565b6040516101bf93929190610941565b60405180910390f35b6101d0610463565b6040516101dd9190610926565b60405180910390f35b61020060048036036101fb9190810190610766565b61046d565b005b61021c60048036036102179190810190610766565b61055d565b6040516102299190610926565b60405180910390f35b61023a61057c565b60405161024791906108e9565b60405180910390f35b6000806001600081548092919060010191905055905061026e6105a2565b60405180608001604052808881526020018773ffffffffffffffffffffffffffffffffffffffff16815260200186815260200160008152509050806000808481526020019081526020016000206000820151816000015560208201518160010160006101000a81548173ffffffffffffffffffffffffffffffffffffffff021916908373ffffffffffffffffffffffffffffffffffffffff16021790555060408201518160020190805190602001906103289291906105e0565b50606082015181600301559050508192505050949350505050565b60015481565b6000806000838152602001908152602001600020600301549050919050565b80600080848152602001908152602001600020600301819055505050565b600360009054906101000a900473ffffffffffffffffffffffffffffffffffffffff1681565b606060008083815260200190815260200160002060020180548060200260200160405190810160405280929190818152602001828054801561040d57602002820191906000526020600020905b8154815260200190600101908083116103f9575b50505050509050919050565b60006020528060005260406000206000915090508060000154908060010160009054906101000a900473ffffffffffffffffffffffffffffffffffffffff16908060030154905083565b6000600154905090565b60008190505b60015481101561054657600080600183018152602001908152602001600020600080838152602001908152602001600020600082015481600001556001820160009054906101000a900473ffffffffffffffffffffffffffffffffffffffff168160010160006101000a81548173ffffffffffffffffffffffffffffffffffffffff021916908373ffffffffffffffffffffffffffffffffffffffff160217905550600282018160020190805461052b92919061062d565b50600382015481600301559050508080600101915050610473565b506001600081548092919060019003919050555050565b6000806000838152602001908152602001600020600001549050919050565b600260009054906101000a900473ffffffffffffffffffffffffffffffffffffffff1681565b604051806080016040528060008152602001600073ffffffffffffffffffffffffffffffffffffffff16815260200160608152602001600081525090565b82805482825590600052602060002090810192821561061c579160200282015b8281111561061b578251825591602001919060010190610600565b5b509050610629919061067f565b5090565b82805482825590600052602060002090810192821561066e5760005260206000209182015b8281111561066d578254825591600101919060010190610652565b5b50905061067b919061067f565b5090565b6106a191905b8082111561069d576000816000905550600101610685565b5090565b90565b6000813590506106b381610a4c565b92915050565b600082601f8301126106ca57600080fd5b81356106dd6106d8826109a5565b610978565b9150818183526020840193506020810190508385602084028201111561070257600080fd5b60005b838110156107325781610718888261073c565b845260208401935060208301925050600181019050610705565b5050505092915050565b60008135905061074b81610a63565b92915050565b60008135905061076081610a7a565b92915050565b60006020828403121561077857600080fd5b600061078684828501610751565b91505092915050565b600080600080608085870312156107a557600080fd5b60006107b387828801610751565b94505060206107c4878288016106a4565b935050604085013567ffffffffffffffff8111156107e157600080fd5b6107ed878288016106b9565b92505060606107fe87828801610751565b91505092959194509250565b6000806040838503121561081d57600080fd5b600061082b85828601610751565b925050602061083c85828601610751565b9150509250929050565b600061085283836108cb565b60208301905092915050565b61086781610a06565b82525050565b6000610878826109dd565b61088281856109f5565b935061088d836109cd565b8060005b838110156108be5781516108a58882610846565b97506108b0836109e8565b925050600181019050610891565b5085935050505092915050565b6108d481610a18565b82525050565b6108e381610a42565b82525050565b60006020820190506108fe600083018461085e565b92915050565b6000602082019050818103600083015261091e818461086d565b905092915050565b600060208201905061093b60008301846108da565b92915050565b600060608201905061095660008301866108da565b610963602083018561085e565b61097060408301846108da565b949350505050565b6000604051905081810181811067ffffffffffffffff8211171561099b57600080fd5b8060405250919050565b600067ffffffffffffffff8211156109bc57600080fd5b602082029050602081019050919050565b6000819050602082019050919050565b600081519050919050565b6000602082019050919050565b600082825260208201905092915050565b6000610a1182610a22565b9050919050565b6000819050919050565b600073ffffffffffffffffffffffffffffffffffffffff82169050919050565b6000819050919050565b610a5581610a06565b8114610a6057600080fd5b50565b610a6c81610a18565b8114610a7757600080fd5b50565b610a8381610a42565b8114610a8e57600080fd5b5056fea365627a7a723158200996a264371d6f52641b7928940b673b4e8c492dbdb48e26c32b8c3f9c16a5e86c6578706572696d656e74616cf564736f6c634300050c0040",
  "source": "pragma solidity ^0.5.1;\npragma experimental ABIEncoderV2;\n\ncontract InvoiceStorage {\n\n    struct invoiceInfo {\n      uint256 bankNo;\n      address sender;\n      bytes32[] dataHash;\n      uint256 status;\n    }\n\n    mapping(uint256 => invoiceInfo) public invoiceStorage;\n    uint256 public numOfInvoices;\n\n    address public adminAddress;\n    address public owner;\n\n    constructor(\n        address _adminAddress\n    ) public {\n        adminAddress = _adminAddress;\n        owner = msg.sender;\n        numOfInvoices = 0;\n    }\n\n    /* prepend a check that function is called by admin address */\n    modifier onlyAdmin {\n        require(msg.sender == adminAddress, 'only admin has access');\n        _;\n    }\n\n    /* prepend a check that function is called by owner address */\n    modifier onlyOwner {\n        require(msg.sender == owner, 'only owner has access');\n        _;\n    }\n\n    function getNumOfInvoices() public view returns (uint256) {\n        return numOfInvoices;\n    }\n\n    function getBankNo(uint256 _invoiceID) public view returns(uint256) {\n        return invoiceStorage[_invoiceID].bankNo;\n    }\n\n    function getDataHash(uint256 _invoiceID) public view returns(bytes32[] memory) {\n        return invoiceStorage[_invoiceID].dataHash;\n    }\n\n    function getStatus(uint256 _invoiceID) public view returns(uint256) {\n        return invoiceStorage[_invoiceID].status;\n    }\n\n    function setStatus(uint256 _invoiceID, uint256 _status) public {\n        invoiceStorage[_invoiceID].status = _status;\n    }\n\n    function addInvoice(uint256 _bankNo, address sender, bytes32[] memory _dataHash, uint256 _timestamp)\n        public\n        returns (uint256)\n    {\n        uint256 invoiceID = numOfInvoices++;\n        invoiceInfo memory newInvoice = invoiceInfo(_bankNo, sender, _dataHash, 0);\n        invoiceStorage[invoiceID] = newInvoice;\n        return invoiceID;\n    }\n\n    function removeInvoice(uint256 invoiceIndex) public {\n        for(uint256 i = invoiceIndex; i < numOfInvoices; i++) {\n            invoiceStorage[i] = invoiceStorage[i + 1];\n        }\n        numOfInvoices--;\n    }\n}\n",
  "sourcePath": "/Users/alex/Documents/JedTrade/kapps-contracts-v1/sc/contracts/invoiceStorage.sol",
  "compiler": {
    "name": "solc",
    "version": "0.5.12+commit.7709ece9.Emscripten.clang"
  },
  "schemaVersion": "3.0.19",
  "updatedAt": "2020-02-03T09:41:43.240Z",
  "devdoc": {
    "methods": {}
  },
  "userdoc": {
    "methods": {}
  }
}