{
  "contractName": "InvoiceManager",
  "abi": [
    {
      "inputs": [
        {
          "internalType": "address",
          "name": "_adminAddress",
          "type": "address"
        }
      ],
      "payable": false,
      "stateMutability": "nonpayable",
      "type": "constructor"
    },
    {
      "constant": true,
      "inputs": [],
      "name": "adminAddress",
      "outputs": [
        {
          "internalType": "address",
          "name": "",
          "type": "address"
        }
      ],
      "payable": false,
      "stateMutability": "view",
      "type": "function"
    },
    {
      "constant": true,
      "inputs": [
        {
          "internalType": "uint256",
          "name": "",
          "type": "uint256"
        }
      ],
      "name": "invoiceStorage",
      "outputs": [
        {
          "internalType": "uint256",
          "name": "bankNo",
          "type": "uint256"
        },
        {
          "internalType": "uint256",
          "name": "status",
          "type": "uint256"
        }
      ],
      "payable": false,
      "stateMutability": "view",
      "type": "function"
    },
    {
      "constant": true,
      "inputs": [],
      "name": "numOfInvoices",
      "outputs": [
        {
          "internalType": "uint256",
          "name": "",
          "type": "uint256"
        }
      ],
      "payable": false,
      "stateMutability": "view",
      "type": "function"
    },
    {
      "constant": true,
      "inputs": [],
      "name": "owner",
      "outputs": [
        {
          "internalType": "address",
          "name": "",
          "type": "address"
        }
      ],
      "payable": false,
      "stateMutability": "view",
      "type": "function"
    },
    {
      "constant": true,
      "inputs": [
        {
          "internalType": "string",
          "name": "source",
          "type": "string"
        }
      ],
      "name": "stringToBytes32",
      "outputs": [
        {
          "internalType": "bytes32",
          "name": "result",
          "type": "bytes32"
        }
      ],
      "payable": false,
      "stateMutability": "view",
      "type": "function"
    },
    {
      "constant": true,
      "inputs": [
        {
          "internalType": "uint256",
          "name": "_invoiceID",
          "type": "uint256"
        }
      ],
      "name": "getBankNo",
      "outputs": [
        {
          "internalType": "uint256",
          "name": "",
          "type": "uint256"
        }
      ],
      "payable": false,
      "stateMutability": "view",
      "type": "function"
    },
    {
      "constant": true,
      "inputs": [
        {
          "internalType": "uint256",
          "name": "_invoiceID",
          "type": "uint256"
        }
      ],
      "name": "getDataHash",
      "outputs": [
        {
          "internalType": "bytes32[]",
          "name": "",
          "type": "bytes32[]"
        }
      ],
      "payable": false,
      "stateMutability": "view",
      "type": "function"
    },
    {
      "constant": true,
      "inputs": [
        {
          "internalType": "uint256",
          "name": "_invoiceID",
          "type": "uint256"
        }
      ],
      "name": "getStatus",
      "outputs": [
        {
          "internalType": "uint256",
          "name": "",
          "type": "uint256"
        }
      ],
      "payable": false,
      "stateMutability": "view",
      "type": "function"
    },
    {
      "constant": false,
      "inputs": [
        {
          "internalType": "uint256",
          "name": "_invoiceID",
          "type": "uint256"
        },
        {
          "internalType": "uint256",
          "name": "_status",
          "type": "uint256"
        }
      ],
      "name": "setStatus",
      "outputs": [],
      "payable": false,
      "stateMutability": "nonpayable",
      "type": "function"
    },
    {
      "constant": false,
      "inputs": [
        {
          "internalType": "uint256",
          "name": "_bankNo",
          "type": "uint256"
        },
        {
          "internalType": "bytes32[]",
          "name": "_dataHash",
          "type": "bytes32[]"
        },
        {
          "internalType": "uint256",
          "name": "_timestamp",
          "type": "uint256"
        }
      ],
      "name": "addInvoice",
      "outputs": [
        {
          "internalType": "uint256",
          "name": "",
          "type": "uint256"
        }
      ],
      "payable": false,
      "stateMutability": "nonpayable",
      "type": "function"
    },
    {
      "constant": true,
      "inputs": [
        {
          "internalType": "uint256",
          "name": "_bankNo",
          "type": "uint256"
        },
        {
          "internalType": "bytes32[]",
          "name": "_dataHash",
          "type": "bytes32[]"
        }
      ],
      "name": "findDuplicateInvoices",
      "outputs": [
        {
          "internalType": "bool",
          "name": "",
          "type": "bool"
        },
        {
          "internalType": "bool",
          "name": "",
          "type": "bool"
        },
        {
          "internalType": "uint256",
          "name": "",
          "type": "uint256"
        },
        {
          "internalType": "uint256",
          "name": "",
          "type": "uint256"
        },
        {
          "internalType": "uint256[]",
          "name": "",
          "type": "uint256[]"
        },
        {
          "internalType": "uint256[]",
          "name": "",
          "type": "uint256[]"
        }
      ],
      "payable": false,
      "stateMutability": "view",
      "type": "function"
    },
    {
      "constant": true,
      "inputs": [
        {
          "internalType": "uint256[]",
          "name": "_duplicateIndexes",
          "type": "uint256[]"
        },
        {
          "internalType": "uint256[]",
          "name": "_validStatus",
          "type": "uint256[]"
        }
      ],
      "name": "checkDuplicatesStatus",
      "outputs": [
        {
          "internalType": "bool",
          "name": "",
          "type": "bool"
        }
      ],
      "payable": false,
      "stateMutability": "view",
      "type": "function"
    },
    {
      "constant": false,
      "inputs": [
        {
          "internalType": "uint256",
          "name": "_bankNo",
          "type": "uint256"
        },
        {
          "internalType": "bytes32[]",
          "name": "_dataHash",
          "type": "bytes32[]"
        },
        {
          "internalType": "uint256",
          "name": "_timestamp",
          "type": "uint256"
        }
      ],
      "name": "approveInvoice",
      "outputs": [
        {
          "internalType": "bool",
          "name": "",
          "type": "bool"
        }
      ],
      "payable": false,
      "stateMutability": "nonpayable",
      "type": "function"
    }
  ],
  "bytecode": "0x60806040523480156200001157600080fd5b50604051620012d9380380620012d98339818101604052620000379190810190620000df565b80600260006101000a81548173ffffffffffffffffffffffffffffffffffffffff021916908373ffffffffffffffffffffffffffffffffffffffff16021790555033600360006101000a81548173ffffffffffffffffffffffffffffffffffffffff021916908373ffffffffffffffffffffffffffffffffffffffff16021790555060006001819055505062000159565b600081519050620000d9816200013f565b92915050565b600060208284031215620000f257600080fd5b60006200010284828501620000c8565b91505092915050565b600062000118826200011f565b9050919050565b600073ffffffffffffffffffffffffffffffffffffffff82169050919050565b6200014a816200010b565b81146200015657600080fd5b50565b61117080620001696000396000f3fe608060405234801561001057600080fd5b50600436106100cf5760003560e01c8063a95efea11161008c578063ec60f5e511610066578063ec60f5e514610252578063ed08923614610282578063f623aa87146102b2578063fc6f9468146102e2576100cf565b8063a95efea1146101c1578063c3be6fd6146101f1578063cfb5192814610222576100cf565b80634c055c9e146100d45780634c87ded9146101095780635c622a0e1461012757806382e40813146101575780638da5cb5b14610173578063a595d8fc14610191575b600080fd5b6100ee60048036036100e99190810190610c20565b610300565b60405161010096959493929190610eb5565b60405180910390f35b610111610408565b60405161011e9190610f3f565b60405180910390f35b610141600480360361013c9190810190610bf7565b61040e565b60405161014e9190610f3f565b60405180910390f35b610171600480360361016c9190810190610cdb565b61042d565b005b61017b61044b565b6040516101889190610e5d565b60405180910390f35b6101ab60048036036101a69190810190610bf7565b610471565b6040516101b89190610e78565b60405180910390f35b6101db60048036036101d69190810190610c74565b6104de565b6040516101e89190610f3f565b60405180910390f35b61020b60048036036102069190810190610bf7565b610571565b604051610219929190610f5a565b60405180910390f35b61023c60048036036102379190810190610bb6565b610595565b6040516102499190610f24565b60405180910390f35b61026c60048036036102679190810190610bf7565b6105c0565b6040516102799190610f3f565b60405180910390f35b61029c60048036036102979190810190610c74565b6105df565b6040516102a99190610e9a565b60405180910390f35b6102cc60048036036102c79190810190610b4a565b610866565b6040516102d99190610e9a565b60405180910390f35b6102ea61090d565b6040516102f79190610e5d565b60405180910390f35b600080600080606080600080905060008090506000809050600080905060608060008090505b6001548110156103e5578d60008151811061033d57fe5b602002602001015160008083815260200190815260200160002060010160008154811061036657fe5b906000526020600020015414156103d8578094508083868151811061038757fe5b60200260200101818152505060648286815181106103a157fe5b60200260200101818152505083806001019450508e6000808381526020019081526020016000206000015414156103d757600196505b5b8080600101915050610326565b508585858585859b509b509b509b509b509b505050505050509295509295509295565b60015481565b6000806000838152602001908152602001600020600201549050919050565b80600080848152602001908152602001600020600201819055505050565b600360009054906101000a900473ffffffffffffffffffffffffffffffffffffffff1681565b60606000808381526020019081526020016000206001018054806020026020016040519081016040528092919081815260200182805480156104d257602002820191906000526020600020905b8154815260200190600101908083116104be575b50505050509050919050565b6000806001549050600160008154809291906001019190505550610500610933565b60405180606001604052808781526020018681526020016000815250905080600080848152602001908152602001600020600082015181600001556020820151816001019080519060200190610557929190610954565b506040820151816002015590505081925050509392505050565b60006020528060005260406000206000915090508060000154908060020154905082565b600060608290506000815114156105b2576000801b9150506105bb565b60208301519150505b919050565b6000806000838152602001908152602001600020600001549050919050565b600080600090506000809050600080905060008090506060806106028a8a610300565b809650819750829850839950849a50859b505050505050506000809050851561083f5786156106565760036106368661040e565b141561064c5761064785600161042d565b610651565b600190505b61083a565b600184111561073457606060068160008151811061067057fe5b60200260200101818152505060078160018151811061068b57fe5b60200260200101818152505060606004816000815181106106a857fe5b60200260200101818152505060606008816000815181106106c557fe5b6020026020010181815250506106db8684610866565b156106f0576106eb88600561042d565b61072c565b6106fa8683610866565b1561070f5761070a88600461042d565b61072b565b6107198682610866565b1561072a5761072988600161042d565b5b5b5b505050610839565b600184141561083857600161075c8460008151811061074f57fe5b602002602001015161040e565b14156107915761076d85600461042d565b61078c8360008151811061077d57fe5b6020026020010151600461042d565b610837565b60026107b0846000815181106107a357fe5b602002602001015161040e565b14156107e5576107c185600561042d565b6107e0836000815181106107d157fe5b6020026020010151600661042d565b610836565b6003610804846000815181106107f757fe5b602002602001015161040e565b14156108355761081585600161042d565b6108348360008151811061082557fe5b6020026020010151600861042d565b5b5b5b5b5b5b610855565b61085461084d8c8c8c6104de565b600161042d565b5b809750505050505050509392505050565b6000806001905060008090505b845181101561090257600080905060008090505b85518110156108dc5785818151811061089c57fe5b60200260200101516108c08885815181106108b357fe5b602002602001015161040e565b14156108cf57600191506108dc565b8080600101915050610887565b506000151581151514156108f4576000925050610902565b508080600101915050610873565b508091505092915050565b600260009054906101000a900473ffffffffffffffffffffffffffffffffffffffff1681565b60405180606001604052806000815260200160608152602001600081525090565b828054828255906000526020600020908101928215610990579160200282015b8281111561098f578251825591602001919060010190610974565b5b50905061099d91906109a1565b5090565b6109c391905b808211156109bf5760008160009055506001016109a7565b5090565b90565b600082601f8301126109d757600080fd5b81356109ea6109e582610fb0565b610f83565b91508181835260208401935060208101905083856020840282011115610a0f57600080fd5b60005b83811015610a3f5781610a258882610acc565b845260208401935060208301925050600181019050610a12565b5050505092915050565b600082601f830112610a5a57600080fd5b8135610a6d610a6882610fd8565b610f83565b91508181835260208401935060208101905083856020840282011115610a9257600080fd5b60005b83811015610ac25781610aa88882610b35565b845260208401935060208301925050600181019050610a95565b5050505092915050565b600081359050610adb816110ff565b92915050565b600082601f830112610af257600080fd5b8135610b05610b0082611000565b610f83565b91508082526020830160208301858383011115610b2157600080fd5b610b2c8382846110f0565b50505092915050565b600081359050610b4481611116565b92915050565b60008060408385031215610b5d57600080fd5b600083013567ffffffffffffffff811115610b7757600080fd5b610b8385828601610a49565b925050602083013567ffffffffffffffff811115610ba057600080fd5b610bac85828601610a49565b9150509250929050565b600060208284031215610bc857600080fd5b600082013567ffffffffffffffff811115610be257600080fd5b610bee84828501610ae1565b91505092915050565b600060208284031215610c0957600080fd5b6000610c1784828501610b35565b91505092915050565b60008060408385031215610c3357600080fd5b6000610c4185828601610b35565b925050602083013567ffffffffffffffff811115610c5e57600080fd5b610c6a858286016109c6565b9150509250929050565b600080600060608486031215610c8957600080fd5b6000610c9786828701610b35565b935050602084013567ffffffffffffffff811115610cb457600080fd5b610cc0868287016109c6565b9250506040610cd186828701610b35565b9150509250925092565b60008060408385031215610cee57600080fd5b6000610cfc85828601610b35565b9250506020610d0d85828601610b35565b9150509250929050565b6000610d238383610e21565b60208301905092915050565b6000610d3b8383610e3f565b60208301905092915050565b610d508161109e565b82525050565b6000610d618261104c565b610d6b818561107c565b9350610d768361102c565b8060005b83811015610da7578151610d8e8882610d17565b9750610d9983611062565b925050600181019050610d7a565b5085935050505092915050565b6000610dbf82611057565b610dc9818561108d565b9350610dd48361103c565b8060005b83811015610e05578151610dec8882610d2f565b9750610df78361106f565b925050600181019050610dd8565b5085935050505092915050565b610e1b816110b0565b82525050565b610e2a816110bc565b82525050565b610e39816110bc565b82525050565b610e48816110e6565b82525050565b610e57816110e6565b82525050565b6000602082019050610e726000830184610d47565b92915050565b60006020820190508181036000830152610e928184610d56565b905092915050565b6000602082019050610eaf6000830184610e12565b92915050565b600060c082019050610eca6000830189610e12565b610ed76020830188610e12565b610ee46040830187610e4e565b610ef16060830186610e4e565b8181036080830152610f038185610db4565b905081810360a0830152610f178184610db4565b9050979650505050505050565b6000602082019050610f396000830184610e30565b92915050565b6000602082019050610f546000830184610e4e565b92915050565b6000604082019050610f6f6000830185610e4e565b610f7c6020830184610e4e565b9392505050565b6000604051905081810181811067ffffffffffffffff82111715610fa657600080fd5b8060405250919050565b600067ffffffffffffffff821115610fc757600080fd5b602082029050602081019050919050565b600067ffffffffffffffff821115610fef57600080fd5b602082029050602081019050919050565b600067ffffffffffffffff82111561101757600080fd5b601f19601f8301169050602081019050919050565b6000819050602082019050919050565b6000819050602082019050919050565b600081519050919050565b600081519050919050565b6000602082019050919050565b6000602082019050919050565b600082825260208201905092915050565b600082825260208201905092915050565b60006110a9826110c6565b9050919050565b60008115159050919050565b6000819050919050565b600073ffffffffffffffffffffffffffffffffffffffff82169050919050565b6000819050919050565b82818337600083830152505050565b611108816110bc565b811461111357600080fd5b50565b61111f816110e6565b811461112a57600080fd5b5056fea365627a7a723158201d54c872a647079753f3304574e892a326c63edfe721bafbe3c345ddaada20986c6578706572696d656e74616cf564736f6c634300050c0040",
  "source": "pragma solidity ^0.5.1;\npragma experimental ABIEncoderV2;\n\ncontract InvoiceManager {\n\n    struct invoiceInfo {\n      uint256 bankNo;\n      bytes32[] dataHash;\n      uint256 status;\n    }\n\n    mapping(uint256 => invoiceInfo) public invoiceStorage;\n    uint256 public numOfInvoices;\n\n    address public adminAddress;\n    address public owner;\n\n    constructor(\n        address _adminAddress\n    ) public {\n        adminAddress = _adminAddress;\n        owner = msg.sender;\n        numOfInvoices = 0;\n    }\n\n    /* prepend a check that function is called by admin address */\n    modifier onlyAdmin {\n        require(msg.sender == adminAddress, 'only admin has access');\n        _;\n    }\n\n    /* prepend a check that function is called by owner address */\n    modifier onlyOwner {\n        require(msg.sender == owner, 'only owner has access');\n        _;\n    }\n\n    function stringToBytes32(string memory source) public view returns (bytes32 result) {\n        bytes memory tempEmptyStringTest = bytes(source);\n        if (tempEmptyStringTest.length == 0) {\n            return 0x0;\n        }\n        assembly {\n            result := mload(add(source, 32))\n        }\n    }\n\n    function getBankNo(uint256 _invoiceID) public view returns(uint256) {\n        return invoiceStorage[_invoiceID].bankNo;\n    }\n\n    function getDataHash(uint256 _invoiceID) public view returns(bytes32[] memory) {\n        return invoiceStorage[_invoiceID].dataHash;\n    }\n\n    function getStatus(uint256 _invoiceID) public view returns(uint256) {\n        return invoiceStorage[_invoiceID].status;\n    }\n\n    function setStatus(uint256 _invoiceID, uint256 _status) public {\n        invoiceStorage[_invoiceID].status = _status;\n    }\n\n    function addInvoice(uint256 _bankNo, bytes32[] memory _dataHash, uint256 _timestamp)\n        public\n        returns (uint256)\n    {\n        uint256 invoiceID = numOfInvoices;\n        numOfInvoices++;\n        invoiceInfo memory newInvoice = invoiceInfo(_bankNo, _dataHash, 0);\n        invoiceStorage[invoiceID] = newInvoice;\n        return invoiceID;\n    }\n\n    /* finds exact match index, duplicate indexes and performs duplicate scoring */\n    function findDuplicateInvoices(uint256 _bankNo, bytes32[] memory _dataHash)\n        public\n        view\n        returns (bool, bool, uint256, uint256, uint256[] memory, uint256[] memory)\n    {\n        bool sameBank = false;\n        bool sameInvoice = false;\n        uint256 invoiceIndex = 0;\n        uint256 numOfDuplicates = 0;\n        uint256[] memory duplicateIndexes;\n        uint256[] memory duplicateInvoiceScoring;\n\n        for (uint256 i = 0; i < numOfInvoices; i++) {\n            /* scoring algorithm here */\n            if((invoiceStorage[i].dataHash)[0] == _dataHash[0]) { // FIX: only compares first hash value\n              invoiceIndex = i;\n              duplicateIndexes[invoiceIndex] = i;\n              duplicateInvoiceScoring[invoiceIndex] = 100;\n              numOfDuplicates++;\n              if (invoiceStorage[i].bankNo == _bankNo) {\n                sameBank = true;\n              }\n            }\n        }\n        return (sameBank, sameInvoice, invoiceIndex, numOfDuplicates, duplicateIndexes, duplicateInvoiceScoring);\n    }\n\n    function checkDuplicatesStatus(uint256[] memory _duplicateIndexes, uint256[] memory _validStatus)\n        public\n        view\n        returns (bool)\n    {\n        bool statusesFound = true;\n        for (uint256 i = 0; i < _duplicateIndexes.length; i++) {\n          bool statusFound = false;\n          for(uint256 j = 0; j < _validStatus.length; j++) {\n            if(getStatus(_duplicateIndexes[i]) == _validStatus[j]) {\n              statusFound = true;\n              break;\n            }\n          }\n          if(statusFound == false) { // invoice status not valid\n            statusesFound = false;\n            break;\n          }\n        }\n        return (statusesFound);\n    }\n\n    function approveInvoice(uint256 _bankNo, bytes32[] memory _dataHash, uint256 _timestamp)\n        public\n        returns (bool)\n    {\n        bool sameBank = false;\n        bool sameInvoice = false;\n        uint256 invoiceIndex = 0;\n        uint256 numOfDuplicates = 0;\n        uint256[] memory duplicateIndexes;\n        uint256[] memory duplicateInvoiceScoring;\n        (sameBank, sameInvoice, invoiceIndex, numOfDuplicates, duplicateIndexes, duplicateInvoiceScoring) = findDuplicateInvoices(_bankNo, _dataHash);\n\n        bool error = false;\n\n        if (sameInvoice) { // find same invoice hash\n            if(sameBank) { // find same invoice hash and same bank no\n              if (getStatus(invoiceIndex) == 3) {\n                setStatus(invoiceIndex, 1);\n              } else {\n                /* need to change invoice status ??? */\n                error = true;\n              }\n            } else {\n              if (numOfDuplicates > 1) {\n                /* FIX: forced to init a dynamic array */\n                uint256[] memory tempArray67;\n                tempArray67[0] = 6;\n                tempArray67[1] = 7;\n                uint256[] memory tempArray4;\n                tempArray4[0] = 4;\n                uint256[] memory tempArray8;\n                tempArray8[0] = 8;\n                if (checkDuplicatesStatus(duplicateIndexes, tempArray67)) {\n                  setStatus(invoiceIndex, 5);\n                } else if (checkDuplicatesStatus(duplicateIndexes, tempArray4)) {\n                  setStatus(invoiceIndex, 4);\n                } else if (checkDuplicatesStatus(duplicateIndexes, tempArray8)) {\n                  setStatus(invoiceIndex, 1);\n                }\n              } else if (numOfDuplicates == 1) {\n                if (getStatus(duplicateIndexes[0]) == 1) {\n                  setStatus(invoiceIndex, 4);\n                  setStatus(duplicateIndexes[0], 4);\n                } else if (getStatus(duplicateIndexes[0]) == 2) {\n                  setStatus(invoiceIndex, 5);\n                  setStatus(duplicateIndexes[0], 6);\n                } else if (getStatus(duplicateIndexes[0]) == 3) {\n                  setStatus(invoiceIndex, 1);\n                  setStatus(duplicateIndexes[0], 8);\n                }\n              }\n            }\n        } else { // add new invoice and approve it\n            /* fix does add invoice return the invoice id??? */\n            setStatus(addInvoice(_bankNo, _dataHash, _timestamp), 1);\n        }\n        return error;\n    }\n\n    /* approve an Invoice\n            check exact\n                    if no exact found, approve\n                    else if exact found\n                            check duplicates\n                                    if no duplicates exist\n                                            check status\n                                                    if invoice status reversed\n                                                            approve invoice\n                                                    else status 10\n                                    else if duplicates exist\n                                            check number of duplicates\n                                                    if only 1 duplicate\n                                                            if duplicate status is approved\n                                                                    set current invoice status to status 4\n                                                                    set duplicate status to status 4\n                                                            if duplicate status is financed\n                                                                    set current invoice status to status 5\n                                                                    set duplicate status to status 6\n                                                            if duplicate status is reversed\n                                                                    set current invoice status to status 1\n                                                                    set duplicate status to status 8\n                                                            else status 10\n                                                    else if more than 1 duplicate\n                                                            if duplicates contain status 6 or 7\n                                                                    set current invoice status to status 5\n                                                            if duplicates are only status 4\n                                                                    set current invoice status to status 4\n                                                            if duplicates are only status 8\n                                                                    set current invoice status to status 1\n                                                            else status 10\n    finance an Invoice\n\n    reverse an Invoice */\n\n\n}\n",
  "sourcePath": "/Users/alex/Documents/JedTrade/KAPPS/sc/contracts/InvoiceManager.sol",
  "compiler": {
    "name": "solc",
    "version": "0.5.12+commit.7709ece9.Emscripten.clang"
  },
  "schemaVersion": "3.0.19",
  "updatedAt": "2020-01-16T07:25:07.686Z",
  "networkType": "ethereum",
  "devdoc": {
    "methods": {}
  },
  "userdoc": {
    "methods": {}
  }
}