{
  "contractName": "InvoiceManager",
  "abi": [
    {
      "inputs": [
        {
          "internalType": "address",
          "name": "_adminAddress",
          "type": "address"
        },
        {
          "internalType": "address",
          "name": "_storageAddress",
          "type": "address"
        }
      ],
      "payable": false,
      "stateMutability": "nonpayable",
      "type": "constructor"
    },
    {
      "constant": true,
      "inputs": [],
      "name": "adminAddress",
      "outputs": [
        {
          "internalType": "address",
          "name": "",
          "type": "address"
        }
      ],
      "payable": false,
      "stateMutability": "view",
      "type": "function"
    },
    {
      "constant": true,
      "inputs": [
        {
          "internalType": "uint256",
          "name": "",
          "type": "uint256"
        }
      ],
      "name": "duplicateStorage",
      "outputs": [
        {
          "internalType": "uint256",
          "name": "index",
          "type": "uint256"
        },
        {
          "internalType": "uint256",
          "name": "score",
          "type": "uint256"
        }
      ],
      "payable": false,
      "stateMutability": "view",
      "type": "function"
    },
    {
      "constant": true,
      "inputs": [],
      "name": "owner",
      "outputs": [
        {
          "internalType": "address",
          "name": "",
          "type": "address"
        }
      ],
      "payable": false,
      "stateMutability": "view",
      "type": "function"
    },
    {
      "constant": false,
      "inputs": [
        {
          "components": [
            {
              "internalType": "uint256",
              "name": "index",
              "type": "uint256"
            },
            {
              "internalType": "uint256",
              "name": "score",
              "type": "uint256"
            }
          ],
          "internalType": "struct InvoiceManager.duplicateInfo[]",
          "name": "_allDuplicates",
          "type": "tuple[]"
        },
        {
          "internalType": "uint256",
          "name": "_prev_status",
          "type": "uint256"
        },
        {
          "internalType": "uint256",
          "name": "_new_status",
          "type": "uint256"
        }
      ],
      "name": "findAndSetDuplicateStatus",
      "outputs": [],
      "payable": false,
      "stateMutability": "nonpayable",
      "type": "function"
    },
    {
      "constant": false,
      "inputs": [
        {
          "internalType": "uint256",
          "name": "_bankNo",
          "type": "uint256"
        },
        {
          "internalType": "bytes32[]",
          "name": "_dataHash",
          "type": "bytes32[]"
        }
      ],
      "name": "findDuplicateInvoices",
      "outputs": [
        {
          "internalType": "bool",
          "name": "",
          "type": "bool"
        },
        {
          "internalType": "bool",
          "name": "",
          "type": "bool"
        },
        {
          "internalType": "uint256",
          "name": "",
          "type": "uint256"
        },
        {
          "internalType": "uint256",
          "name": "",
          "type": "uint256"
        }
      ],
      "payable": false,
      "stateMutability": "nonpayable",
      "type": "function"
    },
    {
      "constant": true,
      "inputs": [
        {
          "internalType": "uint256",
          "name": "invoiceIndex",
          "type": "uint256"
        },
        {
          "internalType": "uint8[3]",
          "name": "_validStatus",
          "type": "uint8[3]"
        }
      ],
      "name": "onlyStatuses",
      "outputs": [
        {
          "internalType": "bool",
          "name": "",
          "type": "bool"
        }
      ],
      "payable": false,
      "stateMutability": "view",
      "type": "function"
    },
    {
      "constant": false,
      "inputs": [
        {
          "internalType": "uint256",
          "name": "_bankNo",
          "type": "uint256"
        },
        {
          "internalType": "bytes32[]",
          "name": "_dataHash",
          "type": "bytes32[]"
        },
        {
          "internalType": "uint256",
          "name": "_timestamp",
          "type": "uint256"
        }
      ],
      "name": "approveInvoice",
      "outputs": [
        {
          "internalType": "bool",
          "name": "",
          "type": "bool"
        }
      ],
      "payable": false,
      "stateMutability": "nonpayable",
      "type": "function"
    },
    {
      "constant": false,
      "inputs": [
        {
          "internalType": "uint256",
          "name": "_bankNo",
          "type": "uint256"
        },
        {
          "internalType": "bytes32[]",
          "name": "_dataHash",
          "type": "bytes32[]"
        },
        {
          "internalType": "uint256",
          "name": "_timestamp",
          "type": "uint256"
        }
      ],
      "name": "financeInvoice",
      "outputs": [
        {
          "internalType": "bool",
          "name": "",
          "type": "bool"
        }
      ],
      "payable": false,
      "stateMutability": "nonpayable",
      "type": "function"
    },
    {
      "constant": false,
      "inputs": [
        {
          "internalType": "uint256",
          "name": "_bankNo",
          "type": "uint256"
        },
        {
          "internalType": "bytes32[]",
          "name": "_dataHash",
          "type": "bytes32[]"
        },
        {
          "internalType": "uint256",
          "name": "_timestamp",
          "type": "uint256"
        }
      ],
      "name": "reverseInvoice",
      "outputs": [
        {
          "internalType": "bool",
          "name": "",
          "type": "bool"
        }
      ],
      "payable": false,
      "stateMutability": "nonpayable",
      "type": "function"
    }
  ],
  "bytecode": "0x60806040523480156200001157600080fd5b506040516200414d3803806200414d833981810160405262000037919081019062000118565b806000806101000a81548173ffffffffffffffffffffffffffffffffffffffff021916908373ffffffffffffffffffffffffffffffffffffffff16021790555081600260006101000a81548173ffffffffffffffffffffffffffffffffffffffff021916908373ffffffffffffffffffffffffffffffffffffffff16021790555033600360006101000a81548173ffffffffffffffffffffffffffffffffffffffff021916908373ffffffffffffffffffffffffffffffffffffffff1602179055505050620001a7565b60008151905062000112816200018d565b92915050565b600080604083850312156200012c57600080fd5b60006200013c8582860162000101565b92505060206200014f8582860162000101565b9150509250929050565b600062000166826200016d565b9050919050565b600073ffffffffffffffffffffffffffffffffffffffff82169050919050565b620001988162000159565b8114620001a457600080fd5b50565b613f9680620001b76000396000f3fe608060405234801561001057600080fd5b50600436106100935760003560e01c8063a6c55f9511610066578063a6c55f9514610149578063d341a27714610179578063e9f50563146101aa578063ed089236146101c6578063fc6f9468146101f657610093565b806331b60097146100985780634c055c9e146100c85780638da5cb5b146100fb57806391f119e514610119575b600080fd5b6100b260048036036100ad91908101906138ff565b610214565b6040516100bf9190613a9e565b60405180910390f35b6100e260048036036100dd9190810190613844565b61030f565b6040516100f29493929190613ab9565b60405180910390f35b6101036108ea565b6040516101109190613a83565b60405180910390f35b610133600480360361012e9190810190613898565b610910565b6040516101409190613a9e565b60405180910390f35b610163600480360361015e9190810190613898565b61148d565b6040516101709190613a9e565b60405180910390f35b610193600480360361018e91908101906137f2565b61206f565b6040516101a1929190613cd6565b60405180910390f35b6101c460048036036101bf919081019061378b565b612093565b005b6101e060048036036101db9190810190613898565b612223565b6040516101ed9190613a9e565b60405180910390f35b6101fe613303565b60405161020b9190613a83565b60405180910390f35b6000806000905060008090505b60038110156103045783816003811061023657fe5b602002015160ff166000809054906101000a900473ffffffffffffffffffffffffffffffffffffffff1673ffffffffffffffffffffffffffffffffffffffff16635c622a0e876040518263ffffffff1660e01b81526004016102989190613afe565b60206040518083038186803b1580156102b057600080fd5b505afa1580156102c4573d6000803e3d6000fd5b505050506040513d601f19601f820116820180604052506102e8919081019061381b565b14156102f75760019150610304565b8080600101915050610221565b508091505092915050565b600080600080600080905060008090506000809050600080905060008090505b6000809054906101000a900473ffffffffffffffffffffffffffffffffffffffff1673ffffffffffffffffffffffffffffffffffffffff1663c4e546cd6040518163ffffffff1660e01b815260040160206040518083038186803b15801561039657600080fd5b505afa1580156103aa573d6000803e3d6000fd5b505050506040513d601f19601f820116820180604052506103ce919081019061381b565b8110156108d057896000815181106103e257fe5b60200260200101516000809054906101000a900473ffffffffffffffffffffffffffffffffffffffff1673ffffffffffffffffffffffffffffffffffffffff1663a595d8fc836040518263ffffffff1660e01b81526004016104449190613afe565b60006040518083038186803b15801561045c57600080fd5b505afa158015610470573d6000803e3d6000fd5b505050506040513d6000823e3d601f19601f82011682018060405250610499919081019061374a565b6000815181106104a557fe5b602002602001015114801561058f5750896001815181106104c257fe5b60200260200101516000809054906101000a900473ffffffffffffffffffffffffffffffffffffffff1673ffffffffffffffffffffffffffffffffffffffff1663a595d8fc836040518263ffffffff1660e01b81526004016105249190613afe565b60006040518083038186803b15801561053c57600080fd5b505afa158015610550573d6000803e3d6000fd5b505050506040513d6000823e3d601f19601f82011682018060405250610579919081019061374a565b60018151811061058557fe5b6020026020010151145b156106af57600193508a6000809054906101000a900473ffffffffffffffffffffffffffffffffffffffff1673ffffffffffffffffffffffffffffffffffffffff1663ec60f5e5836040518263ffffffff1660e01b81526004016105f39190613afe565b60206040518083038186803b15801561060b57600080fd5b505afa15801561061f573d6000803e3d6000fd5b505050506040513d601f19601f82011682018060405250610643919081019061381b565b141561065557809250600194506106aa565b61065d613464565b604051806040016040528083815260200160648152509050806001600085815260200190815260200160002060008201518160000155602082015181600101559050508280600101935050505b6108c3565b896000815181106106bc57fe5b60200260200101516000809054906101000a900473ffffffffffffffffffffffffffffffffffffffff1673ffffffffffffffffffffffffffffffffffffffff1663a595d8fc836040518263ffffffff1660e01b815260040161071e9190613afe565b60006040518083038186803b15801561073657600080fd5b505afa15801561074a573d6000803e3d6000fd5b505050506040513d6000823e3d601f19601f82011682018060405250610773919081019061374a565b60008151811061077f57fe5b6020026020010151148061086857508960018151811061079b57fe5b60200260200101516000809054906101000a900473ffffffffffffffffffffffffffffffffffffffff1673ffffffffffffffffffffffffffffffffffffffff1663a595d8fc836040518263ffffffff1660e01b81526004016107fd9190613afe565b60006040518083038186803b15801561081557600080fd5b505afa158015610829573d6000803e3d6000fd5b505050506040513d6000823e3d601f19601f82011682018060405250610852919081019061374a565b60018151811061085e57fe5b6020026020010151145b156108c257610875613464565b604051806040016040528083815260200160648152509050806001600085815260200190815260200160002060008201518160000155602082015181600101559050508280600101935050505b5b808060010191505061032f565b508383838397509750975097505050505092959194509250565b600360009054906101000a900473ffffffffffffffffffffffffffffffffffffffff1681565b60008060009050600080905060008090506000809050610930888861030f565b8094508195508296508397505050505060608160405190808252806020026020018201604052801561097c57816020015b61096961347e565b8152602001906001900390816109615790505b50905060008090505b828110156109e35760016000828152602001908152602001600020604051806040016040529081600082015481526020016001820154815250508282815181106109cb57fe5b60200260200101819052508080600101915050610985565b5060008090508480156109f35750855b8015610a2b5750610a2a846040518060600160405280600160ff168152602001600460ff168152602001600560ff16815250610214565b5b1561147857600083148015610ae9575060016000809054906101000a900473ffffffffffffffffffffffffffffffffffffffff1673ffffffffffffffffffffffffffffffffffffffff16635c622a0e866040518263ffffffff1660e01b8152600401610a979190613afe565b60206040518083038186803b158015610aaf57600080fd5b505afa158015610ac3573d6000803e3d6000fd5b505050506040513d601f19601f82011682018060405250610ae7919081019061381b565b145b15610b82576000809054906101000a900473ffffffffffffffffffffffffffffffffffffffff1673ffffffffffffffffffffffffffffffffffffffff166382e408138560026040518363ffffffff1660e01b8152600401610b4b929190613b8e565b600060405180830381600087803b158015610b6557600080fd5b505af1158015610b79573d6000803e3d6000fd5b50505050611473565b600183148015610bd65750610bd582600081518110610b9d57fe5b6020026020010151600001516040518060600160405280600460ff168152602001600660ff168152602001600860ff16815250610214565b5b156111ed5760046000809054906101000a900473ffffffffffffffffffffffffffffffffffffffff1673ffffffffffffffffffffffffffffffffffffffff16635c622a0e84600081518110610c2757fe5b6020026020010151600001516040518263ffffffff1660e01b8152600401610c4f9190613afe565b60206040518083038186803b158015610c6757600080fd5b505afa158015610c7b573d6000803e3d6000fd5b505050506040513d601f19601f82011682018060405250610c9f919081019061381b565b1415610de0576000809054906101000a900473ffffffffffffffffffffffffffffffffffffffff1673ffffffffffffffffffffffffffffffffffffffff166382e408138560066040518363ffffffff1660e01b8152600401610d02929190613c32565b600060405180830381600087803b158015610d1c57600080fd5b505af1158015610d30573d6000803e3d6000fd5b505050506000809054906101000a900473ffffffffffffffffffffffffffffffffffffffff1673ffffffffffffffffffffffffffffffffffffffff166382e4081383600081518110610d7e57fe5b60200260200101516000015160056040518363ffffffff1660e01b8152600401610da9929190613c09565b600060405180830381600087803b158015610dc357600080fd5b505af1158015610dd7573d6000803e3d6000fd5b505050506111e8565b60066000809054906101000a900473ffffffffffffffffffffffffffffffffffffffff1673ffffffffffffffffffffffffffffffffffffffff16635c622a0e84600081518110610e2c57fe5b6020026020010151600001516040518263ffffffff1660e01b8152600401610e549190613afe565b60206040518083038186803b158015610e6c57600080fd5b505afa158015610e80573d6000803e3d6000fd5b505050506040513d601f19601f82011682018060405250610ea4919081019061381b565b1415610fe5576000809054906101000a900473ffffffffffffffffffffffffffffffffffffffff1673ffffffffffffffffffffffffffffffffffffffff166382e408138560076040518363ffffffff1660e01b8152600401610f07929190613c5b565b600060405180830381600087803b158015610f2157600080fd5b505af1158015610f35573d6000803e3d6000fd5b505050506000809054906101000a900473ffffffffffffffffffffffffffffffffffffffff1673ffffffffffffffffffffffffffffffffffffffff166382e4081383600081518110610f8357fe5b60200260200101516000015160076040518363ffffffff1660e01b8152600401610fae929190613c5b565b600060405180830381600087803b158015610fc857600080fd5b505af1158015610fdc573d6000803e3d6000fd5b505050506111e7565b60086000809054906101000a900473ffffffffffffffffffffffffffffffffffffffff1673ffffffffffffffffffffffffffffffffffffffff16635c622a0e8460008151811061103157fe5b6020026020010151600001516040518263ffffffff1660e01b81526004016110599190613afe565b60206040518083038186803b15801561107157600080fd5b505afa158015611085573d6000803e3d6000fd5b505050506040513d601f19601f820116820180604052506110a9919081019061381b565b14156111e6576000809054906101000a900473ffffffffffffffffffffffffffffffffffffffff1673ffffffffffffffffffffffffffffffffffffffff166382e408138560026040518363ffffffff1660e01b815260040161110c929190613b8e565b600060405180830381600087803b15801561112657600080fd5b505af115801561113a573d6000803e3d6000fd5b505050506000809054906101000a900473ffffffffffffffffffffffffffffffffffffffff1673ffffffffffffffffffffffffffffffffffffffff166382e408138360008151811061118857fe5b60200260200101516000015160096040518363ffffffff1660e01b81526004016111b3929190613cad565b600060405180830381600087803b1580156111cd57600080fd5b505af11580156111e1573d6000803e3d6000fd5b505050505b5b5b611472565b600183111561147157606061120183613329565b905060008160068151811061121257fe5b6020026020010151118061123a575060008160078151811061123057fe5b6020026020010151115b156112e0576000809054906101000a900473ffffffffffffffffffffffffffffffffffffffff1673ffffffffffffffffffffffffffffffffffffffff166382e408138660076040518363ffffffff1660e01b815260040161129c929190613c5b565b600060405180830381600087803b1580156112b657600080fd5b505af11580156112ca573d6000803e3d6000fd5b505050506112db8360066007612093565b61146f565b6000816004815181106112ef57fe5b602002602001015111156113ab576000809054906101000a900473ffffffffffffffffffffffffffffffffffffffff1673ffffffffffffffffffffffffffffffffffffffff166382e408138660066040518363ffffffff1660e01b815260040161135a929190613c32565b600060405180830381600087803b15801561137457600080fd5b505af1158015611388573d6000803e3d6000fd5b505050506113998360046005612093565b6113a68360086009612093565b61146e565b83816008815181106113b957fe5b60200260200101511415611468576000809054906101000a900473ffffffffffffffffffffffffffffffffffffffff1673ffffffffffffffffffffffffffffffffffffffff166382e408138660026040518363ffffffff1660e01b8152600401611424929190613b8e565b600060405180830381600087803b15801561143e57600080fd5b505af1158015611452573d6000803e3d6000fd5b505050506114638360086009612093565b61146d565b600191505b5b5b505b5b5b61147d565b600190505b8096505050505050509392505050565b600080600090506000809050600080905060008090506114ad888861030f565b809450819550829650839750505050506060816040519080825280602002602001820160405280156114f957816020015b6114e661347e565b8152602001906001900390816114de5790505b50905060008090505b8281101561156057600160008281526020019081526020016000206040518060400160405290816000820154815260200160018201548152505082828151811061154857fe5b60200260200101819052508080600101915050611502565b5060008090508480156115705750855b80156115a857506115a7846040518060600160405280600160ff168152602001600460ff168152602001600560ff16815250610214565b5b1561205a57600083148015611666575060016000809054906101000a900473ffffffffffffffffffffffffffffffffffffffff1673ffffffffffffffffffffffffffffffffffffffff16635c622a0e866040518263ffffffff1660e01b81526004016116149190613afe565b60206040518083038186803b15801561162c57600080fd5b505afa158015611640573d6000803e3d6000fd5b505050506040513d601f19601f82011682018060405250611664919081019061381b565b145b156116ff576000809054906101000a900473ffffffffffffffffffffffffffffffffffffffff1673ffffffffffffffffffffffffffffffffffffffff166382e408138560036040518363ffffffff1660e01b81526004016116c8929190613bb7565b600060405180830381600087803b1580156116e257600080fd5b505af11580156116f6573d6000803e3d6000fd5b50505050612055565b60018314801561175357506117528260008151811061171a57fe5b6020026020010151600001516040518060600160405280600460ff168152602001600660ff168152602001600860ff16815250610214565b5b15611d6a5760046000809054906101000a900473ffffffffffffffffffffffffffffffffffffffff1673ffffffffffffffffffffffffffffffffffffffff16635c622a0e846000815181106117a457fe5b6020026020010151600001516040518263ffffffff1660e01b81526004016117cc9190613afe565b60206040518083038186803b1580156117e457600080fd5b505afa1580156117f8573d6000803e3d6000fd5b505050506040513d601f19601f8201168201806040525061181c919081019061381b565b141561195d576000809054906101000a900473ffffffffffffffffffffffffffffffffffffffff1673ffffffffffffffffffffffffffffffffffffffff166382e408138560086040518363ffffffff1660e01b815260040161187f929190613c84565b600060405180830381600087803b15801561189957600080fd5b505af11580156118ad573d6000803e3d6000fd5b505050506000809054906101000a900473ffffffffffffffffffffffffffffffffffffffff1673ffffffffffffffffffffffffffffffffffffffff166382e40813836000815181106118fb57fe5b60200260200101516000015160016040518363ffffffff1660e01b8152600401611926929190613b65565b600060405180830381600087803b15801561194057600080fd5b505af1158015611954573d6000803e3d6000fd5b50505050611d65565b60066000809054906101000a900473ffffffffffffffffffffffffffffffffffffffff1673ffffffffffffffffffffffffffffffffffffffff16635c622a0e846000815181106119a957fe5b6020026020010151600001516040518263ffffffff1660e01b81526004016119d19190613afe565b60206040518083038186803b1580156119e957600080fd5b505afa1580156119fd573d6000803e3d6000fd5b505050506040513d601f19601f82011682018060405250611a21919081019061381b565b1415611b62576000809054906101000a900473ffffffffffffffffffffffffffffffffffffffff1673ffffffffffffffffffffffffffffffffffffffff166382e408138560096040518363ffffffff1660e01b8152600401611a84929190613cad565b600060405180830381600087803b158015611a9e57600080fd5b505af1158015611ab2573d6000803e3d6000fd5b505050506000809054906101000a900473ffffffffffffffffffffffffffffffffffffffff1673ffffffffffffffffffffffffffffffffffffffff166382e4081383600081518110611b0057fe5b60200260200101516000015160026040518363ffffffff1660e01b8152600401611b2b929190613b8e565b600060405180830381600087803b158015611b4557600080fd5b505af1158015611b59573d6000803e3d6000fd5b50505050611d64565b60086000809054906101000a900473ffffffffffffffffffffffffffffffffffffffff1673ffffffffffffffffffffffffffffffffffffffff16635c622a0e84600081518110611bae57fe5b6020026020010151600001516040518263ffffffff1660e01b8152600401611bd69190613afe565b60206040518083038186803b158015611bee57600080fd5b505afa158015611c02573d6000803e3d6000fd5b505050506040513d601f19601f82011682018060405250611c26919081019061381b565b1415611d63576000809054906101000a900473ffffffffffffffffffffffffffffffffffffffff1673ffffffffffffffffffffffffffffffffffffffff166382e408138560036040518363ffffffff1660e01b8152600401611c89929190613bb7565b600060405180830381600087803b158015611ca357600080fd5b505af1158015611cb7573d6000803e3d6000fd5b505050506000809054906101000a900473ffffffffffffffffffffffffffffffffffffffff1673ffffffffffffffffffffffffffffffffffffffff166382e4081383600081518110611d0557fe5b60200260200101516000015160036040518363ffffffff1660e01b8152600401611d30929190613bb7565b600060405180830381600087803b158015611d4a57600080fd5b505af1158015611d5e573d6000803e3d6000fd5b505050505b5b5b612054565b6001831115612053576060611d7e83613329565b9050600081600681518110611d8f57fe5b60200260200101511180611db75750600081600781518110611dad57fe5b6020026020010151115b15611e83576000809054906101000a900473ffffffffffffffffffffffffffffffffffffffff1673ffffffffffffffffffffffffffffffffffffffff166382e408138660096040518363ffffffff1660e01b8152600401611e19929190613cad565b600060405180830381600087803b158015611e3357600080fd5b505af1158015611e47573d6000803e3d6000fd5b505050506001611e5684613329565b600581518110611e6257fe5b60200260200101511015611e7e57611e7d8360066002612093565b5b612051565b600081600481518110611e9257fe5b60200260200101511115611f67576000809054906101000a900473ffffffffffffffffffffffffffffffffffffffff1673ffffffffffffffffffffffffffffffffffffffff166382e408138660086040518363ffffffff1660e01b8152600401611efd929190613c84565b600060405180830381600087803b158015611f1757600080fd5b505af1158015611f2b573d6000803e3d6000fd5b505050506001611f3a84613329565b600481518110611f4657fe5b60200260200101511415611f6257611f618360046001612093565b5b612050565b8381600881518110611f7557fe5b6020026020010151141561204a576000809054906101000a900473ffffffffffffffffffffffffffffffffffffffff1673ffffffffffffffffffffffffffffffffffffffff166382e408138660036040518363ffffffff1660e01b8152600401611fe0929190613bb7565b600060405180830381600087803b158015611ffa57600080fd5b505af115801561200e573d6000803e3d6000fd5b50505050600161201d84613329565b60018151811061202957fe5b60200260200101511015612045576120448360086003612093565b5b61204f565b600191505b5b5b505b5b5b61205f565b600190505b8096505050505050509392505050565b60016020528060005260406000206000915090508060000154908060010154905082565b60008090505b835181101561221d57826000809054906101000a900473ffffffffffffffffffffffffffffffffffffffff1673ffffffffffffffffffffffffffffffffffffffff16635c622a0e8684815181106120ec57fe5b6020026020010151600001516040518263ffffffff1660e01b81526004016121149190613afe565b60206040518083038186803b15801561212c57600080fd5b505afa158015612140573d6000803e3d6000fd5b505050506040513d601f19601f82011682018060405250612164919081019061381b565b1415612210576000809054906101000a900473ffffffffffffffffffffffffffffffffffffffff1673ffffffffffffffffffffffffffffffffffffffff166382e408138583815181106121b357fe5b602002602001015160000151846040518363ffffffff1660e01b81526004016121dd929190613cd6565b600060405180830381600087803b1580156121f757600080fd5b505af115801561220b573d6000803e3d6000fd5b505050505b8080600101915050612099565b50505050565b60008060009050600080905060008090506000809050612243888861030f565b8094508195508296508397505050505060608160405190808252806020026020018201604052801561228f57816020015b61227c61347e565b8152602001906001900390816122745790505b50905060008090505b828110156122f65760016000828152602001908152602001600020604051806040016040529081600082015481526020016001820154815250508282815181106122de57fe5b60200260200101819052508080600101915050612298565b50600080905084156131b25785801561230f5750600083145b80156123c4575060036000809054906101000a900473ffffffffffffffffffffffffffffffffffffffff1673ffffffffffffffffffffffffffffffffffffffff16635c622a0e866040518263ffffffff1660e01b81526004016123729190613afe565b60206040518083038186803b15801561238a57600080fd5b505afa15801561239e573d6000803e3d6000fd5b505050506040513d601f19601f820116820180604052506123c2919081019061381b565b145b1561245d576000809054906101000a900473ffffffffffffffffffffffffffffffffffffffff1673ffffffffffffffffffffffffffffffffffffffff166382e408138560016040518363ffffffff1660e01b8152600401612426929190613b65565b600060405180830381600087803b15801561244057600080fd5b505af1158015612454573d6000803e3d6000fd5b505050506131ad565b85158061249f575085801561249e575061249d846040518060600160405280600360ff168152602001600860ff168152602001600960ff16815250610214565b5b5b156131a7576001831480156124f857506124f7826000815181106124bf57fe5b6020026020010151600001516040518060600160405280600160ff168152602001600260ff168152602001600360ff16815250610214565b5b15612bc957856125b7576000809054906101000a900473ffffffffffffffffffffffffffffffffffffffff1673ffffffffffffffffffffffffffffffffffffffff16631b5f7fc88b338c8c6040518563ffffffff1660e01b81526004016125629493929190613b19565b602060405180830381600087803b15801561257c57600080fd5b505af1158015612590573d6000803e3d6000fd5b505050506040513d601f19601f820116820180604052506125b4919081019061381b565b93505b60016000809054906101000a900473ffffffffffffffffffffffffffffffffffffffff1673ffffffffffffffffffffffffffffffffffffffff16635c622a0e8460008151811061260357fe5b6020026020010151600001516040518263ffffffff1660e01b815260040161262b9190613afe565b60206040518083038186803b15801561264357600080fd5b505afa158015612657573d6000803e3d6000fd5b505050506040513d601f19601f8201168201806040525061267b919081019061381b565b14156127bc576000809054906101000a900473ffffffffffffffffffffffffffffffffffffffff1673ffffffffffffffffffffffffffffffffffffffff166382e408138560046040518363ffffffff1660e01b81526004016126de929190613be0565b600060405180830381600087803b1580156126f857600080fd5b505af115801561270c573d6000803e3d6000fd5b505050506000809054906101000a900473ffffffffffffffffffffffffffffffffffffffff1673ffffffffffffffffffffffffffffffffffffffff166382e408138360008151811061275a57fe5b60200260200101516000015160046040518363ffffffff1660e01b8152600401612785929190613be0565b600060405180830381600087803b15801561279f57600080fd5b505af11580156127b3573d6000803e3d6000fd5b50505050612bc4565b60026000809054906101000a900473ffffffffffffffffffffffffffffffffffffffff1673ffffffffffffffffffffffffffffffffffffffff16635c622a0e8460008151811061280857fe5b6020026020010151600001516040518263ffffffff1660e01b81526004016128309190613afe565b60206040518083038186803b15801561284857600080fd5b505afa15801561285c573d6000803e3d6000fd5b505050506040513d601f19601f82011682018060405250612880919081019061381b565b14156129c1576000809054906101000a900473ffffffffffffffffffffffffffffffffffffffff1673ffffffffffffffffffffffffffffffffffffffff166382e408138560056040518363ffffffff1660e01b81526004016128e3929190613c09565b600060405180830381600087803b1580156128fd57600080fd5b505af1158015612911573d6000803e3d6000fd5b505050506000809054906101000a900473ffffffffffffffffffffffffffffffffffffffff1673ffffffffffffffffffffffffffffffffffffffff166382e408138360008151811061295f57fe5b60200260200101516000015160066040518363ffffffff1660e01b815260040161298a929190613c32565b600060405180830381600087803b1580156129a457600080fd5b505af11580156129b8573d6000803e3d6000fd5b50505050612bc3565b60036000809054906101000a900473ffffffffffffffffffffffffffffffffffffffff1673ffffffffffffffffffffffffffffffffffffffff16635c622a0e84600081518110612a0d57fe5b6020026020010151600001516040518263ffffffff1660e01b8152600401612a359190613afe565b60206040518083038186803b158015612a4d57600080fd5b505afa158015612a61573d6000803e3d6000fd5b505050506040513d601f19601f82011682018060405250612a85919081019061381b565b1415612bc2576000809054906101000a900473ffffffffffffffffffffffffffffffffffffffff1673ffffffffffffffffffffffffffffffffffffffff166382e408138560016040518363ffffffff1660e01b8152600401612ae8929190613b65565b600060405180830381600087803b158015612b0257600080fd5b505af1158015612b16573d6000803e3d6000fd5b505050506000809054906101000a900473ffffffffffffffffffffffffffffffffffffffff1673ffffffffffffffffffffffffffffffffffffffff166382e4081383600081518110612b6457fe5b60200260200101516000015160086040518363ffffffff1660e01b8152600401612b8f929190613c84565b600060405180830381600087803b158015612ba957600080fd5b505af1158015612bbd573d6000803e3d6000fd5b505050505b5b5b6131a2565b60018311156131a15785612c8c576000809054906101000a900473ffffffffffffffffffffffffffffffffffffffff1673ffffffffffffffffffffffffffffffffffffffff16631b5f7fc88b338c8c6040518563ffffffff1660e01b8152600401612c379493929190613b19565b602060405180830381600087803b158015612c5157600080fd5b505af1158015612c65573d6000803e3d6000fd5b505050506040513d601f19601f82011682018060405250612c89919081019061381b565b93505b6060612c9783613329565b9050600081600681518110612ca857fe5b60200260200101511180612cd05750600081600781518110612cc657fe5b6020026020010151115b15612d69576000809054906101000a900473ffffffffffffffffffffffffffffffffffffffff1673ffffffffffffffffffffffffffffffffffffffff166382e408138660056040518363ffffffff1660e01b8152600401612d32929190613c09565b600060405180830381600087803b158015612d4c57600080fd5b505af1158015612d60573d6000803e3d6000fd5b5050505061319f565b600081600281518110612d7857fe5b60200260200101511115612e27576000809054906101000a900473ffffffffffffffffffffffffffffffffffffffff1673ffffffffffffffffffffffffffffffffffffffff166382e408138660056040518363ffffffff1660e01b8152600401612de3929190613c09565b600060405180830381600087803b158015612dfd57600080fd5b505af1158015612e11573d6000803e3d6000fd5b50505050612e228360026006612093565b61319e565b600081600181518110612e3657fe5b60200260200101511115612ee5576000809054906101000a900473ffffffffffffffffffffffffffffffffffffffff1673ffffffffffffffffffffffffffffffffffffffff166382e408138660046040518363ffffffff1660e01b8152600401612ea1929190613be0565b600060405180830381600087803b158015612ebb57600080fd5b505af1158015612ecf573d6000803e3d6000fd5b50505050612ee08360016004612093565b61319d565b600081600481518110612ef457fe5b60200260200101511115612f96576000809054906101000a900473ffffffffffffffffffffffffffffffffffffffff1673ffffffffffffffffffffffffffffffffffffffff166382e408138660046040518363ffffffff1660e01b8152600401612f5f929190613be0565b600060405180830381600087803b158015612f7957600080fd5b505af1158015612f8d573d6000803e3d6000fd5b5050505061319c565b8381600881518110612fa457fe5b60200260200101511415613046576000809054906101000a900473ffffffffffffffffffffffffffffffffffffffff1673ffffffffffffffffffffffffffffffffffffffff166382e408138660016040518363ffffffff1660e01b815260040161300f929190613b65565b600060405180830381600087803b15801561302957600080fd5b505af115801561303d573d6000803e3d6000fd5b5050505061319b565b838160038151811061305457fe5b60200260200101511415613103576000809054906101000a900473ffffffffffffffffffffffffffffffffffffffff1673ffffffffffffffffffffffffffffffffffffffff166382e408138660016040518363ffffffff1660e01b81526004016130bf929190613b65565b600060405180830381600087803b1580156130d957600080fd5b505af11580156130ed573d6000803e3d6000fd5b505050506130fe8360036008612093565b61319a565b86613195576000809054906101000a900473ffffffffffffffffffffffffffffffffffffffff1673ffffffffffffffffffffffffffffffffffffffff1663ebb1a6e9866040518263ffffffff1660e01b81526004016131629190613afe565b600060405180830381600087803b15801561317c57600080fd5b505af1158015613190573d6000803e3d6000fd5b505050505b600191505b5b5b5b5b5b505b5b6131ac565b600190505b5b6132f3565b6000809054906101000a900473ffffffffffffffffffffffffffffffffffffffff1673ffffffffffffffffffffffffffffffffffffffff166382e408136000809054906101000a900473ffffffffffffffffffffffffffffffffffffffff1673ffffffffffffffffffffffffffffffffffffffff16631b5f7fc88d338e8e6040518563ffffffff1660e01b815260040161324f9493929190613b19565b602060405180830381600087803b15801561326957600080fd5b505af115801561327d573d6000803e3d6000fd5b505050506040513d601f19601f820116820180604052506132a1919081019061381b565b60016040518363ffffffff1660e01b81526004016132c0929190613b65565b600060405180830381600087803b1580156132da57600080fd5b505af11580156132ee573d6000803e3d6000fd5b505050505b8096505050505050509392505050565b600260009054906101000a900473ffffffffffffffffffffffffffffffffffffffff1681565b606080600b60405190808252806020026020018201604052801561335c5781602001602082028038833980820191505090505b50905060008090505b835181101561345a57816000809054906101000a900473ffffffffffffffffffffffffffffffffffffffff1673ffffffffffffffffffffffffffffffffffffffff16635c622a0e8684815181106133b857fe5b6020026020010151600001516040518263ffffffff1660e01b81526004016133e09190613afe565b60206040518083038186803b1580156133f857600080fd5b505afa15801561340c573d6000803e3d6000fd5b505050506040513d601f19601f82011682018060405250613430919081019061381b565b8151811061343a57fe5b602002602001018051809190600101815250508080600101915050613365565b5080915050919050565b604051806040016040528060008152602001600081525090565b604051806040016040528060008152602001600081525090565b600082601f8301126134a957600080fd5b81356134bc6134b782613d2c565b613cff565b915081818352602084019350602081019050838560208402820111156134e157600080fd5b60005b8381101561351157816134f78882613695565b8452602084019350602083019250506001810190506134e4565b5050505092915050565b600082601f83011261352c57600080fd5b815161353f61353a82613d2c565b613cff565b9150818183526020840193506020810190508385602084028201111561356457600080fd5b60005b83811015613594578161357a88826136aa565b845260208401935060208301925050600181019050613567565b5050505092915050565b600082601f8301126135af57600080fd5b81356135c26135bd82613d54565b613cff565b915081818352602084019350602081019050838560408402820111156135e757600080fd5b60005b8381101561361757816135fd88826136bf565b8452602084019350604083019250506001810190506135ea565b5050505092915050565b600082601f83011261363257600080fd5b600361364561364082613d7c565b613cff565b9150818385602084028201111561365b57600080fd5b60005b8381101561368b57816136718882613735565b84526020840193506020830192505060018101905061365e565b5050505092915050565b6000813590506136a481613f0e565b92915050565b6000815190506136b981613f0e565b92915050565b6000604082840312156136d157600080fd5b6136db6040613cff565b905060006136eb8482850161370b565b60008301525060206136ff8482850161370b565b60208301525092915050565b60008135905061371a81613f25565b92915050565b60008151905061372f81613f25565b92915050565b60008135905061374481613f3c565b92915050565b60006020828403121561375c57600080fd5b600082015167ffffffffffffffff81111561377657600080fd5b6137828482850161351b565b91505092915050565b6000806000606084860312156137a057600080fd5b600084013567ffffffffffffffff8111156137ba57600080fd5b6137c68682870161359e565b93505060206137d78682870161370b565b92505060406137e88682870161370b565b9150509250925092565b60006020828403121561380457600080fd5b60006138128482850161370b565b91505092915050565b60006020828403121561382d57600080fd5b600061383b84828501613720565b91505092915050565b6000806040838503121561385757600080fd5b60006138658582860161370b565b925050602083013567ffffffffffffffff81111561388257600080fd5b61388e85828601613498565b9150509250929050565b6000806000606084860312156138ad57600080fd5b60006138bb8682870161370b565b935050602084013567ffffffffffffffff8111156138d857600080fd5b6138e486828701613498565b92505060406138f58682870161370b565b9150509250925092565b6000806080838503121561391257600080fd5b60006139208582860161370b565b925050602061393185828601613621565b9150509250929050565b600061394783836139de565b60208301905092915050565b61395c81613e36565b82525050565b61396b81613dd7565b82525050565b600061397c82613dae565b6139868185613dc6565b935061399183613d9e565b8060005b838110156139c25781516139a9888261393b565b97506139b483613db9565b925050600181019050613995565b5085935050505092915050565b6139d881613de9565b82525050565b6139e781613df5565b82525050565b6139f681613e48565b82525050565b613a0581613e5a565b82525050565b613a1481613e6c565b82525050565b613a2381613e7e565b82525050565b613a3281613e90565b82525050565b613a4181613ea2565b82525050565b613a5081613eb4565b82525050565b613a5f81613ec6565b82525050565b613a6e81613ed8565b82525050565b613a7d81613e1f565b82525050565b6000602082019050613a986000830184613962565b92915050565b6000602082019050613ab360008301846139cf565b92915050565b6000608082019050613ace60008301876139cf565b613adb60208301866139cf565b613ae86040830185613a74565b613af56060830184613a74565b95945050505050565b6000602082019050613b136000830184613a74565b92915050565b6000608082019050613b2e6000830187613a74565b613b3b6020830186613953565b8181036040830152613b4d8185613971565b9050613b5c6060830184613a74565b95945050505050565b6000604082019050613b7a6000830185613a74565b613b8760208301846139ed565b9392505050565b6000604082019050613ba36000830185613a74565b613bb060208301846139fc565b9392505050565b6000604082019050613bcc6000830185613a74565b613bd96020830184613a0b565b9392505050565b6000604082019050613bf56000830185613a74565b613c026020830184613a1a565b9392505050565b6000604082019050613c1e6000830185613a74565b613c2b6020830184613a29565b9392505050565b6000604082019050613c476000830185613a74565b613c546020830184613a38565b9392505050565b6000604082019050613c706000830185613a74565b613c7d6020830184613a47565b9392505050565b6000604082019050613c996000830185613a74565b613ca66020830184613a56565b9392505050565b6000604082019050613cc26000830185613a74565b613ccf6020830184613a65565b9392505050565b6000604082019050613ceb6000830185613a74565b613cf86020830184613a74565b9392505050565b6000604051905081810181811067ffffffffffffffff82111715613d2257600080fd5b8060405250919050565b600067ffffffffffffffff821115613d4357600080fd5b602082029050602081019050919050565b600067ffffffffffffffff821115613d6b57600080fd5b602082029050602081019050919050565b600067ffffffffffffffff821115613d9357600080fd5b602082029050919050565b6000819050602082019050919050565b600081519050919050565b6000602082019050919050565b600082825260208201905092915050565b6000613de282613dff565b9050919050565b60008115159050919050565b6000819050919050565b600073ffffffffffffffffffffffffffffffffffffffff82169050919050565b6000819050919050565b600060ff82169050919050565b6000613e4182613eea565b9050919050565b6000613e5382613e1f565b9050919050565b6000613e6582613e1f565b9050919050565b6000613e7782613e1f565b9050919050565b6000613e8982613e1f565b9050919050565b6000613e9b82613e1f565b9050919050565b6000613ead82613e1f565b9050919050565b6000613ebf82613e1f565b9050919050565b6000613ed182613e1f565b9050919050565b6000613ee382613e1f565b9050919050565b6000613ef582613efc565b9050919050565b6000613f0782613dff565b9050919050565b613f1781613df5565b8114613f2257600080fd5b50565b613f2e81613e1f565b8114613f3957600080fd5b50565b613f4581613e29565b8114613f5057600080fd5b5056fea365627a7a72315820bd306376a7fd278130c2ed69b4e0df97d0b12f821bdfb2aa4f5343ea15d43cd76c6578706572696d656e74616cf564736f6c634300050c0040",
  "source": "pragma solidity ^0.5.1;\npragma experimental ABIEncoderV2;\nimport './invoiceStorage.sol';\ncontract InvoiceManager {\n\n    InvoiceStorage invoiceStorage;\n\n    struct duplicateInfo {\n      uint256 index;\n      uint256 score;\n    }\n\n    mapping(uint256 => duplicateInfo) public duplicateStorage;\n    address public adminAddress;\n    address public owner;\n\n    constructor(\n        address _adminAddress,\n        address _storageAddress\n    ) public {\n        invoiceStorage = InvoiceStorage(_storageAddress);\n        adminAddress = _adminAddress;\n        owner = msg.sender;\n    }\n\n    /* prepend a check that function is called by admin address */\n    modifier onlyAdmin {\n        require(msg.sender == adminAddress, 'only admin has access');\n        _;\n    }\n\n    /* prepend a check that function is called by owner address */\n    modifier onlyOwner {\n        require(msg.sender == owner, 'only owner has access');\n        _;\n    }\n\n    function findAndSetDuplicateStatus(duplicateInfo[] memory _allDuplicates, uint256 _prev_status, uint256 _new_status) public {\n        for(uint256 i = 0; i < _allDuplicates.length; i++) {\n            if(invoiceStorage.getStatus(_allDuplicates[i].index) == _prev_status) {\n                invoiceStorage.setStatus(_allDuplicates[i].index, _new_status);\n            }\n        }\n    }\n\n    function countDuplicateStatuses(duplicateInfo[] memory _allDuplicates)\n        internal view\n        returns (uint256[] memory)\n    {\n        uint256[] memory countStatus = new uint256[](11);\n        for (uint256 i = 0; i < _allDuplicates.length; i++) {\n            countStatus[invoiceStorage.getStatus(_allDuplicates[i].index)]++;\n        }\n        return countStatus;\n    }\n\n    /* finds exact match index, duplicate indexes and performs duplicate scoring */\n    function findDuplicateInvoices(uint256 _bankNo, bytes32[] memory _dataHash)\n        public\n        returns (bool, bool, uint256, uint256)\n    {\n        bool sameBank = false;\n        bool sameInvoice = false;\n        uint256 invoiceIndex = 0;\n        uint256 numOfDuplicates = 0;\n\n        for (uint256 i = 0; i < invoiceStorage.getNumOfInvoices(); i++) {\n            /* exact invoice found */\n            if (invoiceStorage.getDataHash(i)[0] == _dataHash[0] && invoiceStorage.getDataHash(i)[1] == _dataHash[1]) {\n                sameInvoice = true;\n                if (invoiceStorage.getBankNo(i) == _bankNo) {\n                    invoiceIndex = i;\n                    sameBank = true;\n                } else {\n                    duplicateInfo memory newDuplicate = duplicateInfo(i, 100);\n                    duplicateStorage[numOfDuplicates] = newDuplicate;\n                    numOfDuplicates++;\n                }\n            /* // TO DO: scoring algorithm here */\n            } else if (invoiceStorage.getDataHash(i)[0] == _dataHash[0] || invoiceStorage.getDataHash(i)[1] == _dataHash[1]) {\n                duplicateInfo memory newDuplicate = duplicateInfo(i, 100);\n                duplicateStorage[numOfDuplicates] = newDuplicate;\n                numOfDuplicates++;\n            }\n        }\n        return (sameBank, sameInvoice, invoiceIndex, numOfDuplicates);\n    }\n\n    /* TO DO: forced to init a dynamic array */\n    /* uint256[] memory tempArray123 = new uint256[](3);\n    tempArray123[0] = 1;\n    tempArray123[1] = 2;\n    tempArray123[2] = 3; */\n    function onlyStatuses(uint256 invoiceIndex, uint8[3] memory _validStatus)\n        public\n        view\n        returns (bool)\n    {\n        bool statusFound = false;\n        for(uint256 j = 0; j < _validStatus.length; j++) {\n            if (invoiceStorage.getStatus(invoiceIndex) == _validStatus[j]) {\n                statusFound = true;\n                break;\n            }\n        }\n        return statusFound;\n    }\n\n    function approveInvoice(uint256 _bankNo, bytes32[] memory _dataHash, uint256 _timestamp)\n        public\n        returns (bool)\n    {\n        bool sameBank = false;\n        bool sameInvoice = false;\n        uint256 invoiceIndex = 0;\n        uint256 numOfDuplicates = 0;\n        (sameBank, sameInvoice, invoiceIndex, numOfDuplicates) = findDuplicateInvoices(_bankNo, _dataHash);\n        duplicateInfo[] memory allDuplicates = new duplicateInfo[](numOfDuplicates);\n        for(uint256 i = 0; i < numOfDuplicates; i++) {\n            allDuplicates[i] = duplicateStorage[i];\n        }\n\n        bool error = false;\n\n        if (sameInvoice) {\n            if (sameBank && numOfDuplicates == 0 && invoiceStorage.getStatus(invoiceIndex) == 3) { // approve single reversed invoice\n                invoiceStorage.setStatus(invoiceIndex, 1);\n            } else if (!sameBank || (sameBank && onlyStatuses(invoiceIndex, [3, 8, 9]))) { // if invoice exist, check if status valid\n                if (numOfDuplicates == 1 && onlyStatuses(allDuplicates[0].index, [1, 2, 3])) {\n                    // add invoice if NEW bank submits same invoice\n                    if(!sameBank) invoiceIndex = invoiceStorage.addInvoice(_bankNo, msg.sender, _dataHash, _timestamp);\n                    if (invoiceStorage.getStatus(allDuplicates[0].index) == 1) {\n                        invoiceStorage.setStatus(invoiceIndex, 4);\n                        invoiceStorage.setStatus(allDuplicates[0].index, 4);\n                    } else if (invoiceStorage.getStatus(allDuplicates[0].index) == 2) {\n                        invoiceStorage.setStatus(invoiceIndex, 5);\n                        invoiceStorage.setStatus(allDuplicates[0].index, 6);\n                    } else if (invoiceStorage.getStatus(allDuplicates[0].index) == 3) {\n                        invoiceStorage.setStatus(invoiceIndex, 1);\n                        invoiceStorage.setStatus(allDuplicates[0].index, 8);\n                    }\n                } else if (numOfDuplicates > 1) {\n                    // add invoice if NEW bank submits same invoice\n                    if(!sameBank) invoiceIndex = invoiceStorage.addInvoice(_bankNo, msg.sender, _dataHash, _timestamp);\n                    uint256[] memory countStatus = countDuplicateStatuses(allDuplicates);\n                    if (countStatus[6] > 0 || countStatus[7] > 0) {\n                        invoiceStorage.setStatus(invoiceIndex, 5);\n                    } else if (countStatus[2] > 0) {\n                        invoiceStorage.setStatus(invoiceIndex, 5);\n                        findAndSetDuplicateStatus(allDuplicates, 2, 6);\n                    } else if (countStatus[1] > 0) {\n                        invoiceStorage.setStatus(invoiceIndex, 4);\n                        findAndSetDuplicateStatus(allDuplicates, 1, 4);\n                    } else if (countStatus[4] > 0) {\n                        invoiceStorage.setStatus(invoiceIndex, 4);\n                    }   else if (countStatus[8] == numOfDuplicates) { // TO DO: should never occur\n                        invoiceStorage.setStatus(invoiceIndex, 1);\n                    }   else if (countStatus[3] == numOfDuplicates) { // only contains 3\n                        invoiceStorage.setStatus(invoiceIndex, 1);\n                        findAndSetDuplicateStatus(allDuplicates, 3, 8);\n                    } else {\n                        if(!sameBank) invoiceStorage.removeInvoice(invoiceIndex); // remove invoice if error\n                        /* TO DO: should return an error response */\n                        error = true;\n                    }\n                }\n            } else {\n                /* TO DO: should return an error response */\n                error = true;\n            }\n        } else {\n            invoiceStorage.setStatus(invoiceStorage.addInvoice(_bankNo, msg.sender, _dataHash, _timestamp), 1);\n        }\n        return error;\n    }\n\n    function financeInvoice(uint256 _bankNo, bytes32[] memory _dataHash, uint256 _timestamp)\n        public\n        returns (bool)\n    {\n        bool sameBank = false;\n        bool sameInvoice = false;\n        uint256 invoiceIndex = 0;\n        uint256 numOfDuplicates = 0;\n        (sameBank, sameInvoice, invoiceIndex, numOfDuplicates) = findDuplicateInvoices(_bankNo, _dataHash);\n        duplicateInfo[] memory allDuplicates = new duplicateInfo[](numOfDuplicates);\n        for(uint256 i = 0; i < numOfDuplicates; i++) {\n            allDuplicates[i] = duplicateStorage[i];\n        }\n\n        bool error = false;\n\n        if (sameInvoice && sameBank && onlyStatuses(invoiceIndex, [1, 4, 5])) {\n            if (numOfDuplicates == 0 && invoiceStorage.getStatus(invoiceIndex) == 1) {\n                invoiceStorage.setStatus(invoiceIndex, 2);\n            } else if (numOfDuplicates == 1 && onlyStatuses(allDuplicates[0].index, [4, 6, 8])) {\n                if (invoiceStorage.getStatus(allDuplicates[0].index) == 4) {\n                    invoiceStorage.setStatus(invoiceIndex, 6);\n                    invoiceStorage.setStatus(allDuplicates[0].index, 5);\n                } else if (invoiceStorage.getStatus(allDuplicates[0].index) == 6) {\n                    invoiceStorage.setStatus(invoiceIndex, 7);\n                    invoiceStorage.setStatus(allDuplicates[0].index, 7);\n                } else if (invoiceStorage.getStatus(allDuplicates[0].index) == 8) {\n                    invoiceStorage.setStatus(invoiceIndex, 2);\n                    invoiceStorage.setStatus(allDuplicates[0].index, 9);\n                }\n            } else if (numOfDuplicates > 1) {\n                uint256[] memory countStatus = countDuplicateStatuses(allDuplicates);\n                if (countStatus[6] > 0 || countStatus[7] > 0) {\n                    invoiceStorage.setStatus(invoiceIndex, 7);\n                    findAndSetDuplicateStatus(allDuplicates, 6, 7);\n                } else if (countStatus[4] > 0) {\n                    invoiceStorage.setStatus(invoiceIndex, 6);\n                    findAndSetDuplicateStatus(allDuplicates, 4, 5);\n                    findAndSetDuplicateStatus(allDuplicates, 8, 9);\n                } else if (countStatus[8] == numOfDuplicates) {\n                    invoiceStorage.setStatus(invoiceIndex, 2);\n                    findAndSetDuplicateStatus(allDuplicates, 8, 9);\n                } else {\n                    /* TO DO: should return an error response */\n                    error = true;\n                }\n            }\n        } else {\n            /* TO DO: should return an error response */\n            error = true;\n        }\n        return error;\n    }\n\n    function reverseInvoice(uint256 _bankNo, bytes32[] memory _dataHash, uint256 _timestamp)\n        public\n        returns (bool)\n    {\n        bool sameBank = false;\n        bool sameInvoice = false;\n        uint256 invoiceIndex = 0;\n        uint256 numOfDuplicates = 0;\n        (sameBank, sameInvoice, invoiceIndex, numOfDuplicates) = findDuplicateInvoices(_bankNo, _dataHash);\n        duplicateInfo[] memory allDuplicates = new duplicateInfo[](numOfDuplicates);\n        for(uint256 i = 0; i < numOfDuplicates; i++) {\n            allDuplicates[i] = duplicateStorage[i];\n        }\n\n        bool error = false;\n\n        if (sameInvoice && sameBank && onlyStatuses(invoiceIndex, [1, 4, 5])) {\n            if (numOfDuplicates == 0 && invoiceStorage.getStatus(invoiceIndex) == 1) {\n                invoiceStorage.setStatus(invoiceIndex, 3);\n            } else if (numOfDuplicates == 1 && onlyStatuses(allDuplicates[0].index, [4, 6, 8])) {\n                if (invoiceStorage.getStatus(allDuplicates[0].index) == 4) {\n                    invoiceStorage.setStatus(invoiceIndex, 8);\n                    invoiceStorage.setStatus(allDuplicates[0].index, 1);\n                } else if (invoiceStorage.getStatus(allDuplicates[0].index) == 6) {\n                    invoiceStorage.setStatus(invoiceIndex, 9);\n                    invoiceStorage.setStatus(allDuplicates[0].index, 2);\n                } else if (invoiceStorage.getStatus(allDuplicates[0].index) == 8) {\n                    invoiceStorage.setStatus(invoiceIndex, 3);\n                    invoiceStorage.setStatus(allDuplicates[0].index, 3);\n                }\n            } else if (numOfDuplicates > 1) {\n                uint256[] memory countStatus = countDuplicateStatuses(allDuplicates);\n                if (countStatus[6] > 0 || countStatus[7] > 0) {\n                    invoiceStorage.setStatus(invoiceIndex, 9);\n                    if (countDuplicateStatuses(allDuplicates)[5] < 1) {\n                        findAndSetDuplicateStatus(allDuplicates, 6, 2);\n                    }\n                } else if (countStatus[4] > 0) {\n                    invoiceStorage.setStatus(invoiceIndex, 8);\n                    if (countDuplicateStatuses(allDuplicates)[4] == 1) {\n                        findAndSetDuplicateStatus(allDuplicates, 4, 1);\n                    }\n                } else if (countStatus[8] == numOfDuplicates) {\n                    invoiceStorage.setStatus(invoiceIndex, 3);\n                    if (countDuplicateStatuses(allDuplicates)[1] < 1) {\n                        findAndSetDuplicateStatus(allDuplicates, 8, 3);\n                    }\n                } else {\n                    /* TO DO: should return an error response */\n                    error = true;\n                }\n            }\n        } else {\n            /* TO DO: should return an error response */\n            error = true;\n        }\n        return error;\n    }\n}\n",
  "sourcePath": "/Users/alex/Documents/JedTrade/kapps-contracts-v1/sc/contracts/InvoiceManager.sol",
  "compiler": {
    "name": "solc",
    "version": "0.5.12+commit.7709ece9.Emscripten.clang"
  },
  "schemaVersion": "3.0.19",
  "updatedAt": "2020-02-03T09:41:43.222Z",
  "devdoc": {
    "methods": {}
  },
  "userdoc": {
    "methods": {}
  }
}